:020000040800F2
:1000000000280020DB0A0008D50A0008D50A0008ED
:10001000D50A0008D50A0008D50A0008000000002B
:10002000000000000000000000000000D50A0008E9
:10003000D50A000800000000D50A0008D50A00080B
:10004000D50A0008D50A0008D50A0008D50A000814
:10005000D50A0008D50A0008D50A0008D50A000804
:10006000D50A0008D50A0008D50A0008D50A0008F4
:10007000D50A0008D50A0008D50A0008D50A0008E4
:10008000D50A0008D50A0008D50A0008D50A0008D4
:10009000D50A0008D50A0008D50A0008D50A0008C4
:1000A000D50A0008D50A0008D50A0008D50A0008B4
:1000B000D50A0008D50A0008D50A0008D50A0008A4
:1000C000D50A0008D50A0008D50A0008D50A000894
:1000D000D50A0008D50A0008D50A0008D50A000884
:1000E000D50A0008D50A0008D50A0008000000005B
:1000F0000000000000000000000000000000000000
:1001000000000000000000000000000000000000EF
:1001100000000000000000000000000000000000DF
:0C012000000000000000000000000000D3
:10012C0080B400AF074B9B69064A43F0040393610C
:10013C00044B9B69034A43F00803936100BFBD461F
:10014C0080BC70470010024080B485B000AF78606E
:10015C000023FB600BE00023BB6002E0BB680133B3
:10016C00BB60BB68FE2BF9D9FB680133FB60FA68F6
:10017C007B689A42EFD300BF00BF1437BD4680BCEA
:10018C00704780B586B000AFFFF7CAFF00F0F0FBF8
:10019C0000237B610BE07B69DBB21946002000F089
:1001AC0050FC2A2000F0FEFB7B6901337B617B69EC
:1001BC000F2BF0DD01233B610BE03B69DBB20F2120
:1001CC00184600F03EFC2A2000F0ECFB3B690133A2
:1001DC003B613B69022BF0DD0F23FB600BE0FB68FE
:1001EC00DBB21946032000F02CFC2A2000F0DAFBCD
:1001FC00FB68013BFB60FB68002BF0DA0223BB6061
:10020C000BE0BB68DBB20021184600F01AFC2A2078
:10021C0000F0C8FBBB68013BBB60BB68002BF0DC8B
:10022C000121012000F00DFC0A4800F0DDFB0F233A
:10023C007B600BE07B68DBB21946022000F001FC0E
:10024C002A2000F0AFFB7B68013B7B607B68002BB6
:10025C00F0DAFEE7580B000880B483B000AF034619
:10026C00FB80FB88B3F5004F00F0A580B3F5004F81
:10027C0000F3A380B3F5804F00F09B80B3F5804F63
:10028C0000F39B80B3F5005F00F09180B3F5005F45
:10029C0000F39380B3F5805F00F08780B3F5805F47
:1002AC0000F38B80B3F5006F7DD0B3F5006F00F3D6
:1002BC008480B3F5806F74D0B3F5806F7DDCB3F5BB
:1002CC00007F6CD0B3F5007F77DCB3F5807F64D012
:1002DC00B3F5807F71DC802B5DD0802B6DDC202B07
:1002EC0048DC002B69DD013B1F2B66D801A252F8BC
:1002FC0023F000BF870300088B030008C703000826
:10030C008F030008C7030008C7030008C7030008D1
:10031C0093030008C7030008C7030008C7030008BD
:10032C00C7030008C7030008C7030008C703000879
:10033C0097030008C7030008C7030008C703000899
:10034C00C7030008C7030008C7030008C703000859
:10035C00C7030008C7030008C7030008C703000849
:10036C00C7030008C7030008C7030008C703000839
:10037C009B030008402B0CD01FE000231EE004233D
:10038C001CE008231AE00C2318E0102316E01423B9
:10039C0014E0182312E01C2310E000230EE00423C9
:1003AC000CE008230AE00C2308E0102306E01423D9
:1003BC0004E0182302E01C2300E0002318460C374D
:1003CC00BD4680BC704780B584B000AF78603960A2
:1003DC000023FB600023BB603B681B88FF2B02D80B
:1003EC007B68FB6002E07B680433FB603B681B8826
:1003FC001846FFF731FF03461A460F239340DA43A2
:10040C00FB681B681A40FB681A603B689B78052BDD
:10041C000BD03B689B78042B07D03B689B78072B51
:10042C0003D03B689B78062B0AD13B689B78043B36
:10043C009B003A68D278134303F00F03BB602BE0A8
:10044C003B689B78012B03D03B689B78002B06D133
:10045C003B689B789B0003F00F03BB601CE03B6880
:10046C009B78082B02D10423BB6015E00823BB60EA
:10047C003B689B78022B07D17B68DB683A68128853
:10048C001A437B68DA6007E07B68DB683A6812889D
:10049C00D2431A407B68DA603B681B881846FFF72A
:1004AC00DBFE03461A46BB6803FA02F2FB681B68C4
:1004BC001A43FB681A6000BF1037BD4680BD80B47C
:1004CC0083B000AF78607B682B4A93420CD12B4BE6
:1004DC00DB682A4A43F00403D360284BDB68274AC5
:1004EC0023F00403D36042E07B68254A93420CD18D
:1004FC00224BDB68214A43F00803D3601F4BDB68B7
:10050C001E4A23F00803D36031E07B681D4A9342F6
:10051C000CD11A4BDB68194A43F01003D360174B0C
:10052C00DB68164A23F01003D36020E07B68164A80
:10053C0093420CD1114BDB68104A43F02003D3607B
:10054C000E4BDB680D4A23F02003D3600FE07B6871
:10055C000E4A93420BD1094BDB68084A43F0400327
:10056C00D360064BDB68054A23F04003D36000BF21
:10057C000C37BD4680BC704700080140001002409B
:10058C00000C014000100140001401400018014013
:10059C0080B485B000AF78600B467B807B689A682E
:1005AC007B881340002B02D00123FB7301E0002356
:1005BC00FB73FB7B18461437BD4680BC704780B478
:1005CC0085B000AF78607B689B68FB81FB8918461F
:1005DC001437BD4680BC704780B483B000AF7860E0
:1005EC000B46FB70FA787B68DA6000BF0C37BD46AF
:1005FC0080BC704780B483B000AF78600B467B80C2
:10060C0013467B707B78002B03D07A887B681A6149
:10061C0002E07A887B685A6100BF0C37BD4680BC0B
:10062C00704780B483B000AF78600B467B807B68EA
:10063C00DA687B885A407B68DA6000BF0C37BD46AD
:10064C0080BC704780B485B000AF78600B467B806F
:10065C004FF48033FB607A88FB681343FB60FA68C5
:10066C007B689A617A887B689A61FA687B689A6180
:10067C007B689B69FB607B689B6903F48033002B70
:10068C0001D0012300E0002318461437BD4680BC7E
:10069C00704700BF80B485B000AF78600023FB606A
:1006AC000BE00023BB6002E0BB680133BB60BB689E
:1006BC00FE2BF9D9FB680133FB60FA687B689A4220
:1006CC00EFD300BF00BF1437BD4680BC704780B568
:1006DC0000AF534B4FF480721A80514B04229A7026
:1006EC004F4B0122DA704E494E48FFF76CFE4C4BD3
:1006FC004FF400721A804A4B04229A70484B012224
:10070C00DA7047494748FFF75EFE454B4FF480626D
:10071C001A80434B04229A70414B0122DA704049F3
:10072C004048FFF750FE3E4B01221A803C4B0422FE
:10073C009A703B4B0122DA7039493A48FFF743FE75
:10074C00374B02221A80364B04229A70344B01220A
:10075C00DA7033493348FFF736FE314B04221A80E6
:10076C002F4B04229A702E4B0122DA702C492D4803
:10077C00FFF729FE2A4B08221A80294B04229A7073
:10078C00274B0122DA7026492648FFF71CFE244B22
:10079C0010221A80224B04229A70214B0122DA700B
:1007AC001F492048FFF70FFE1D4B20221A801C4BBF
:1007BC0004229A701A4B0122DA7019491948FFF772
:1007CC0002FE174B40221A80154B04229A70144BD0
:1007DC000122DA7012491348FFF7F5FD104B802205
:1007EC001A800F4B04229A700D4B0122DA700C49BF
:1007FC000C48FFF7E8FD00224FF480610948FFF731
:10080C00F9FE00224FF480710648FFF7F3FE002238
:10081C004FF400710348FFF7EDFE00BF80BD00BF31
:10082C00000000200008014080B500AF324B0122CF
:10083C001A80314B01229A702F493048FFF7C3FDC3
:10084C002D4B02221A802C4B01229A702A492B48DC
:10085C00FFF7B9FD284B04221A80274B01229A700E
:10086C0025492648FFF7AFFD234B08221A80224B5F
:10087C0001229A7020492148FFF7A5FD1E4B10223A
:10088C001A801D4B01229A701B491C48FFF79BFDD7
:10089C00194B20221A80184B01229A7016491748BE
:1008AC00FFF791FD144B40221A80134B01229A70D2
:1008BC0011491248FFF787FD0F4B80221A800E4B0F
:1008CC0001229A700C490D48FFF77DFD01224FF46F
:1008DC0000710A48FFF78EFE00224FF48071074822
:1008EC00FFF788FE00F00CF800224FF4007103486B
:1008FC00FFF780FE00BF80BD000000200008014013
:10090C0080B500AF01224FF480610748FFF772FEFB
:10091C000A20FFF7BFFE00224FF480610248FFF768
:10092C0069FE00BF80BD00BF0008014080B582B0E9
:10093C0000AF0346FB71FB7919460C48FFF74CFEE0
:10094C0000224FF400710948FFF754FE00224FF4C7
:10095C0080710648FFF74EFE0120FFF79BFEFFF764
:10096C00CFFF00BF0837BD4680BD00BF0008014067
:10097C0080B500AF1420FFF78DFEFFF7A8FE0F2007
:10098C00FFF788FE00F099F83820FFF7CFFF06201C
:10099C00FFF7CCFF8020FFF7C9FF0C20FFF7C6FF45
:1009AC0000BF80BD80B582B000AF0346FB71FB7900
:1009BC0019460C48FFF710FE00224FF4007109484D
:1009CC00FFF718FE01224FF480710648FFF712FE64
:1009DC000120FFF75FFEFFF793FF00BF0837BD460E
:1009EC0080BD00BF0008014080B584B000AF7860C6
:1009FC000023FB601CE0FB680133FB607B685A1C26
:100A0C007A601B781846FFF7CDFFFB68102B04D1DA
:100A1C000021022000F015F80AE0FB68202B07D11A
:100A2C0000F04BF80021012000F00BF80023FB60D4
:100A3C007B681B78002BDED100BF00BF1037BD4692
:100A4C0080BD80B582B000AF03460A46FB711346E9
:100A5C00BB71FB79002B09D1BB790F2B29D8BB7942
:100A6C00803BDBB21846FFF761FF22E0FB79012BDC
:100A7C0009D1BB790F2B1CD8BB79403BDBB2184694
:100A8C00FFF754FF15E0FB79022B09D1BB790F2B33
:100A9C000FD8BB79703BDBB21846FFF747FF08E075
:100AAC00BB790F2B05D8BB79303BDBB21846FFF76F
:100ABC003DFF00BF0837BD4680BD80B500AF0120AB
:100ACC00FFF734FF00BF80BD80B400AFFEE780B5F8
:100ADC0086B000AF184A194BD31A7B60184B7B6158
:100AEC00164B3B610023FB600AE07A69131D7B61A6
:100AFC003B69191D396112681A60FB680133FB6090
:100B0C00FA687B689A42F0D30E4A0F4BD31A7B607B
:100B1C000D4B3B610023BB6007E03B691A1D3A613A
:100B2C0000221A60BB680133BB60BA687B689A42CA
:100B3C00F3D3FFF726FBFEE70000002000000020A7
:0C0B4C00670B00080400002000000020DF
:0F0B58002A4945454520204D616E4353432A00ED
:0400000508000ADB0A
:00000001FF
